{
  "contractName": "SongRegistry",
  "abi": [
    {
      "constant": true,
      "inputs": [
        {
          "name": "",
          "type": "uint256"
        }
      ],
      "name": "songs",
      "outputs": [
        {
          "name": "name",
          "type": "string"
        },
        {
          "name": "owner",
          "type": "address"
        },
        {
          "name": "url",
          "type": "string"
        },
        {
          "name": "price",
          "type": "uint256"
        }
      ],
      "payable": false,
      "stateMutability": "view",
      "type": "function",
      "signature": "0x304cff30"
    },
    {
      "inputs": [],
      "payable": false,
      "stateMutability": "nonpayable",
      "type": "constructor",
      "signature": "constructor"
    },
    {
      "constant": false,
      "inputs": [
        {
          "name": "_name",
          "type": "string"
        },
        {
          "name": "_url",
          "type": "string"
        },
        {
          "name": "_price",
          "type": "uint256"
        }
      ],
      "name": "registerSong",
      "outputs": [],
      "payable": false,
      "stateMutability": "nonpayable",
      "type": "function",
      "signature": "0x30753c7a"
    },
    {
      "constant": true,
      "inputs": [
        {
          "name": "_songId",
          "type": "uint256"
        }
      ],
      "name": "isBuyer",
      "outputs": [
        {
          "name": "",
          "type": "bool"
        }
      ],
      "payable": false,
      "stateMutability": "view",
      "type": "function",
      "signature": "0xfecf415a"
    },
    {
      "constant": false,
      "inputs": [
        {
          "name": "_songId",
          "type": "uint256"
        }
      ],
      "name": "buySong",
      "outputs": [
        {
          "name": "",
          "type": "bool"
        }
      ],
      "payable": true,
      "stateMutability": "payable",
      "type": "function",
      "signature": "0x606a0175"
    },
    {
      "constant": true,
      "inputs": [],
      "name": "numberOfSongs",
      "outputs": [
        {
          "name": "",
          "type": "uint256"
        }
      ],
      "payable": false,
      "stateMutability": "view",
      "type": "function",
      "signature": "0x4d8a0b01"
    }
  ],
  "bytecode": "0x608060405234801561001057600080fd5b50336000806101000a81548173ffffffffffffffffffffffffffffffffffffffff021916908373ffffffffffffffffffffffffffffffffffffffff160217905550610c15806100606000396000f3fe60806040526004361061006d576000357c0100000000000000000000000000000000000000000000000000000000900463ffffffff168063304cff301461007257806330753c7a146101cc5780634d8a0b01146102b1578063606a0175146102dc578063fecf415a14610322575b600080fd5b34801561007e57600080fd5b506100ab6004803603602081101561009557600080fd5b8101908080359060200190929190505050610375565b60405180806020018573ffffffffffffffffffffffffffffffffffffffff1673ffffffffffffffffffffffffffffffffffffffff16815260200180602001848152602001838103835287818151815260200191508051906020019080838360005b8381101561012757808201518184015260208101905061010c565b50505050905090810190601f1680156101545780820380516001836020036101000a031916815260200191505b50838103825285818151815260200191508051906020019080838360005b8381101561018d578082015181840152602081019050610172565b50505050905090810190601f1680156101ba5780820380516001836020036101000a031916815260200191505b50965050505050505060405180910390f35b3480156101d857600080fd5b506102af600480360360608110156101ef57600080fd5b810190808035906020019064010000000081111561020c57600080fd5b82018360208201111561021e57600080fd5b8035906020019184600183028401116401000000008311171561024057600080fd5b90919293919293908035906020019064010000000081111561026157600080fd5b82018360208201111561027357600080fd5b8035906020019184600183028401116401000000008311171561029557600080fd5b909192939192939080359060200190929190505050610504565b005b3480156102bd57600080fd5b506102c6610710565b6040518082815260200191505060405180910390f35b610308600480360360208110156102f257600080fd5b810190808035906020019092919050505061071d565b604051808215151515815260200191505060405180910390f35b34801561032e57600080fd5b5061035b6004803603602081101561034557600080fd5b8101908080359060200190929190505050610a39565b604051808215151515815260200191505060405180910390f35b60018181548110151561038457fe5b9060005260206000209060040201600091509050806000018054600181600116156101000203166002900480601f0160208091040260200160405190810160405280929190818152602001828054600181600116156101000203166002900480156104305780601f1061040557610100808354040283529160200191610430565b820191906000526020600020905b81548152906001019060200180831161041357829003601f168201915b5050505050908060010160009054906101000a900473ffffffffffffffffffffffffffffffffffffffff1690806002018054600181600116156101000203166002900480601f0160208091040260200160405190810160405280929190818152602001828054600181600116156101000203166002900480156104f45780601f106104c9576101008083540402835291602001916104f4565b820191906000526020600020905b8154815290600101906020018083116104d757829003601f168201915b5050505050908060030154905084565b61050c610b05565b60806040519081016040528087878080601f016020809104026020016040519081016040528093929190818152602001838380828437600081840152601f19601f8201169050808301925050505050505081526020013373ffffffffffffffffffffffffffffffffffffffff16815260200185858080601f016020809104026020016040519081016040528093929190818152602001838380828437600081840152601f19601f820116905080830192505050505050508152602001838152509050600181908060018154018082558091505090600182039060005260206000209060040201600090919290919091506000820151816000019080519060200190610618929190610b44565b5060208201518160010160006101000a81548173ffffffffffffffffffffffffffffffffffffffff021916908373ffffffffffffffffffffffffffffffffffffffff160217905550604082015181600201908051906020019061067c929190610b44565b506060820151816003015550505060026000600180805490500381526020019081526020016000203390806001815401808255809150509060018203906000526020600020016000909192909190916101000a81548173ffffffffffffffffffffffffffffffffffffffff021916908373ffffffffffffffffffffffffffffffffffffffff16021790555050505050505050565b6000600180549050905090565b6000610727610b05565b60018381548110151561073657fe5b906000526020600020906004020160806040519081016040529081600082018054600181600116156101000203166002900480601f0160208091040260200160405190810160405280929190818152602001828054600181600116156101000203166002900480156107e95780601f106107be576101008083540402835291602001916107e9565b820191906000526020600020905b8154815290600101906020018083116107cc57829003601f168201915b505050505081526020016001820160009054906101000a900473ffffffffffffffffffffffffffffffffffffffff1673ffffffffffffffffffffffffffffffffffffffff1673ffffffffffffffffffffffffffffffffffffffff168152602001600282018054600181600116156101000203166002900480601f0160208091040260200160405190810160405280929190818152602001828054600181600116156101000203166002900480156108e15780601f106108b6576101008083540402835291602001916108e1565b820191906000526020600020905b8154815290600101906020018083116108c457829003601f168201915b505050505081526020016003820154815250509050348160600151141515610971576040517f08c379a000000000000000000000000000000000000000000000000000000000815260040180806020018281038252601d8152602001807f496e636f726563742076616c75652073656e74207769746820736f6e6700000081525060200191505060405180910390fd5b600260008481526020019081526020016000203390806001815401808255809150509060018203906000526020600020016000909192909190916101000a81548173ffffffffffffffffffffffffffffffffffffffff021916908373ffffffffffffffffffffffffffffffffffffffff16021790555050806020015173ffffffffffffffffffffffffffffffffffffffff166108fc349081150290604051600060405180830381858888f19350505050158015610a32573d6000803e3d6000fd5b5050919050565b6000806002600084815260200190815260200160002080549050905060008090505b81811015610af9573373ffffffffffffffffffffffffffffffffffffffff166002600086815260200190815260200160002082815481101515610a9a57fe5b9060005260206000200160009054906101000a900473ffffffffffffffffffffffffffffffffffffffff1673ffffffffffffffffffffffffffffffffffffffff161415610aec57600192505050610b00565b8080600101915050610a5b565b5060009150505b919050565b60806040519081016040528060608152602001600073ffffffffffffffffffffffffffffffffffffffff16815260200160608152602001600081525090565b828054600181600116156101000203166002900490600052602060002090601f016020900481019282601f10610b8557805160ff1916838001178555610bb3565b82800160010185558215610bb3579182015b82811115610bb2578251825591602001919060010190610b97565b5b509050610bc09190610bc4565b5090565b610be691905b80821115610be2576000816000905550600101610bca565b5090565b9056fea165627a7a72305820175f67c3182641ab96a1b09e63049e2523ffe644fdfcb0b0af41a4ffc71ca6d20029",
  "source": "pragma solidity^0.5.0;\n\ncontract SongRegistry {\n    address owner;\n    \n    struct Song{\n        string name;\n        address payable owner;\n        string url;\n        uint256 price;\n    }\n    Song[] public songs;\n    mapping (uint256 => address[]) buyers;\n    \n    constructor() public{\n        owner = msg.sender;\n    }\n    \n    modifier onlyOwner(){\n        msg.sender == owner;\n        _;\n    }\n    \n    function registerSong(string calldata _name, string calldata _url, uint256 _price) external {\n        Song memory newSong = Song ({name: _name, owner: msg.sender, url: _url, price: _price});\n        songs.push(newSong);\n        buyers[songs.length - 1].push(msg.sender);\n    }\n    \n    function isBuyer(uint256 _songId) public view returns(bool){\n        uint256 numberOfBuyers = buyers[_songId].length;\n        for(uint256 i = 0; i < numberOfBuyers; i ++){\n            if (buyers[_songId][i] == msg.sender){\n                return true;\n            }\n        }\n        return false;\n    }\n    \n    function buySong(uint256 _songId) public payable returns (bool){\n        Song memory selectedSong = songs[_songId];\n        require(selectedSong.price == msg.value, \"Incorect value sent with song\");\n        buyers[_songId].push(msg.sender);\n        selectedSong.owner.transfer(msg.value);\n    }\n    \n    function numberOfSongs() public view returns(uint256) {\n        return songs.length;\n    }\n}",
  "sourcePath": "/Users/chris/Projects/SolidityExamples/SongRegistry/contracts/SongRegistry.sol",
  "compiler": {
    "name": "solc",
    "version": "0.5.0+commit.1d4f565a.Emscripten.clang"
  },
  "schemaVersion": "3.0.2",
  "updatedAt": "2019-06-12T13:44:31.750Z",
  "devdoc": {
    "methods": {}
  },
  "userdoc": {
    "methods": {}
  }
}