{
  "contractName": "Bakery",
  "abi": [
    {
      "constant": true,
      "inputs": [
        {
          "name": "",
          "type": "uint256"
        }
      ],
      "name": "bakedGoods",
      "outputs": [
        {
          "name": "owner",
          "type": "address"
        },
        {
          "name": "name",
          "type": "string"
        },
        {
          "name": "price",
          "type": "uint256"
        },
        {
          "name": "quantity",
          "type": "uint256"
        }
      ],
      "payable": false,
      "stateMutability": "view",
      "type": "function",
      "signature": "0x5c2f1a87"
    },
    {
      "constant": false,
      "inputs": [
        {
          "name": "_name",
          "type": "string"
        },
        {
          "name": "_price",
          "type": "uint256"
        },
        {
          "name": "_quantity",
          "type": "uint256"
        }
      ],
      "name": "createBakedGood",
      "outputs": [
        {
          "name": "",
          "type": "uint256"
        }
      ],
      "payable": false,
      "stateMutability": "nonpayable",
      "type": "function",
      "signature": "0x82d1dad4"
    },
    {
      "constant": false,
      "inputs": [
        {
          "name": "_bakedGoodIndex",
          "type": "uint256"
        }
      ],
      "name": "eatBakedGood",
      "outputs": [],
      "payable": true,
      "stateMutability": "payable",
      "type": "function",
      "signature": "0xe290b3f8"
    }
  ],
  "bytecode": "0x608060405234801561001057600080fd5b506107c4806100206000396000f3fe608060405260043610610057576000357c0100000000000000000000000000000000000000000000000000000000900463ffffffff1680635c2f1a871461005c57806382d1dad414610151578063e290b3f8146101ff575b600080fd5b34801561006857600080fd5b506100956004803603602081101561007f57600080fd5b810190808035906020019092919050505061022d565b604051808573ffffffffffffffffffffffffffffffffffffffff1673ffffffffffffffffffffffffffffffffffffffff16815260200180602001848152602001838152602001828103825285818151815260200191508051906020019080838360005b838110156101135780820151818401526020810190506100f8565b50505050905090810190601f1680156101405780820380516001836020036101000a031916815260200191505b509550505050505060405180910390f35b34801561015d57600080fd5b506101e96004803603606081101561017457600080fd5b810190808035906020019064010000000081111561019157600080fd5b8201836020820111156101a357600080fd5b803590602001918460018302840111640100000000831117156101c557600080fd5b90919293919293908035906020019092919080359060200190929190505050610324565b6040518082815260200191505060405180910390f35b61022b6004803603602081101561021557600080fd5b8101908080359060200190929190505050610464565b005b60008181548110151561023c57fe5b90600052602060002090600402016000915090508060000160009054906101000a900473ffffffffffffffffffffffffffffffffffffffff1690806001018054600181600116156101000203166002900480601f01602080910402602001604051908101604052809291908181526020018280546001816001161561010002031660029004801561030e5780601f106102e35761010080835404028352916020019161030e565b820191906000526020600020905b8154815290600101906020018083116102f157829003601f168201915b5050505050908060020154908060030154905084565b600061032e6106b4565b6080604051908101604052803373ffffffffffffffffffffffffffffffffffffffff16815260200187878080601f016020809104026020016040519081016040528093929190818152602001838380828437600081840152601f19601f820116905080830192505050505050508152602001858152602001848152509050600080829080600181540180825580915050906001820390600052602060002090600402016000909192909190915060008201518160000160006101000a81548173ffffffffffffffffffffffffffffffffffffffff021916908373ffffffffffffffffffffffffffffffffffffffff160217905550602082015181600101908051906020019061043e9291906106f3565b506040820151816002015560608201518160030155505090508092505050949350505050565b61046c6106b4565b60008281548110151561047b57fe5b9060005260206000209060040201608060405190810160405290816000820160009054906101000a900473ffffffffffffffffffffffffffffffffffffffff1673ffffffffffffffffffffffffffffffffffffffff1673ffffffffffffffffffffffffffffffffffffffff168152602001600182018054600181600116156101000203166002900480601f0160208091040260200160405190810160405280929190818152602001828054600181600116156101000203166002900480156105845780601f1061055957610100808354040283529160200191610584565b820191906000526020600020905b81548152906001019060200180831161056757829003601f168201915b505050505081526020016002820154815260200160038201548152505090503481604001511415156105b557600080fd5b6001816060015110151515610632576040517f08c379a00000000000000000000000000000000000000000000000000000000081526004018080602001828103825260138152602001807f4e6f2062616b656420676f6f6473206c6566740000000000000000000000000081525060200191505060405180910390fd5b600160008381548110151561064357fe5b906000526020600020906004020160030160008282540392505081905550806000015173ffffffffffffffffffffffffffffffffffffffff166108fc82604001519081150290604051600060405180830381858888f193505050501580156106af573d6000803e3d6000fd5b505050565b608060405190810160405280600073ffffffffffffffffffffffffffffffffffffffff1681526020016060815260200160008152602001600081525090565b828054600181600116156101000203166002900490600052602060002090601f016020900481019282601f1061073457805160ff1916838001178555610762565b82800160010185558215610762579182015b82811115610761578251825591602001919060010190610746565b5b50905061076f9190610773565b5090565b61079591905b80821115610791576000816000905550600101610779565b5090565b9056fea165627a7a723058208d5135dbf01be6a09a72a637c3a0a3f99bd43c4a002a4dd546b7f2b17f5300fa0029",
  "source": "pragma solidity^0.5.0;\n\ncontract Bakery{\n    struct BakedGood {\n        address payable owner;\n        string name;\n        uint256 price;\n        uint256 quantity;\n    }\n    \n    BakedGood[] public bakedGoods;\n    \n    function createBakedGood(string calldata _name, uint256 _price, uint256 _quantity) external returns(uint256){\n        BakedGood memory newBakedGood = BakedGood({owner: msg.sender, name: _name, price: _price, quantity: _quantity});\n        uint256 addedIndex = bakedGoods.push(newBakedGood);\n        return (addedIndex);\n    }\n    \n    function eatBakedGood(uint256 _bakedGoodIndex) payable external{\n        BakedGood memory selectedBackedGood = bakedGoods[_bakedGoodIndex];\n        require(selectedBackedGood.price == msg.value);\n        require(selectedBackedGood.quantity >= 1, \"No baked goods left\");\n        bakedGoods[_bakedGoodIndex].quantity -= 1;\n        selectedBackedGood.owner.transfer(selectedBackedGood.price);\n    }\n}",
  "sourcePath": "/Users/chris/Projects/SolidityExamples/Bakery/contracts/Bakery.sol",
  "compiler": {
    "name": "solc",
    "version": "0.5.0+commit.1d4f565a.Emscripten.clang"
  },
  "schemaVersion": "3.0.2",
  "updatedAt": "2019-06-13T08:27:55.276Z",
  "devdoc": {
    "methods": {}
  },
  "userdoc": {
    "methods": {}
  }
}